{
  "contractName": "Faucet",
  "abi": [
    {
      "inputs": [
        {
          "internalType": "address",
          "name": "",
          "type": "address"
        }
      ],
      "name": "funders",
      "outputs": [
        {
          "internalType": "bool",
          "name": "",
          "type": "bool"
        }
      ],
      "stateMutability": "view",
      "type": "function",
      "constant": true
    },
    {
      "inputs": [
        {
          "internalType": "uint256",
          "name": "",
          "type": "uint256"
        }
      ],
      "name": "lutFunder",
      "outputs": [
        {
          "internalType": "address",
          "name": "",
          "type": "address"
        }
      ],
      "stateMutability": "view",
      "type": "function",
      "constant": true
    },
    {
      "inputs": [],
      "name": "numOfFunder",
      "outputs": [
        {
          "internalType": "uint256",
          "name": "",
          "type": "uint256"
        }
      ],
      "stateMutability": "view",
      "type": "function",
      "constant": true
    },
    {
      "stateMutability": "payable",
      "type": "receive",
      "payable": true
    },
    {
      "inputs": [],
      "name": "addFunds",
      "outputs": [],
      "stateMutability": "payable",
      "type": "function",
      "payable": true
    },
    {
      "inputs": [
        {
          "internalType": "uint256",
          "name": "index",
          "type": "uint256"
        }
      ],
      "name": "getFunderIndex",
      "outputs": [
        {
          "internalType": "address",
          "name": "",
          "type": "address"
        }
      ],
      "stateMutability": "view",
      "type": "function",
      "constant": true
    },
    {
      "inputs": [],
      "name": "getAllFunder",
      "outputs": [
        {
          "internalType": "address[]",
          "name": "",
          "type": "address[]"
        }
      ],
      "stateMutability": "view",
      "type": "function",
      "constant": true
    },
    {
      "inputs": [
        {
          "internalType": "uint256",
          "name": "amount",
          "type": "uint256"
        }
      ],
      "name": "withdraw",
      "outputs": [],
      "stateMutability": "nonpayable",
      "type": "function"
    }
  ],
  "bytecode": "0x608060405234801561001057600080fd5b506108ea806100206000396000f3fe6080604052600436106100745760003560e01c80635631d9621161004e5780635631d9621461011157806389a620db1461013c5780638aca4d7c14610179578063a26759cb146101b65761007b565b8063031b3677146100805780630bbf53fb146100bd5780632e1a7d4d146100e85761007b565b3661007b57005b600080fd5b34801561008c57600080fd5b506100a760048036038101906100a29190610568565b6101c0565b6040516100b491906105b0565b60405180910390f35b3480156100c957600080fd5b506100d26101e0565b6040516100df9190610689565b60405180910390f35b3480156100f457600080fd5b5061010f600480360381019061010a91906106e1565b6102d9565b005b34801561011d57600080fd5b50610126610370565b604051610133919061071d565b60405180910390f35b34801561014857600080fd5b50610163600480360381019061015e91906106e1565b610376565b6040516101709190610747565b60405180910390f35b34801561018557600080fd5b506101a0600480360381019061019b91906106e1565b6103b3565b6040516101ad9190610747565b60405180910390f35b6101be6103e6565b005b60026020528060005260406000206000915054906101000a900460ff1681565b60606000805467ffffffffffffffff8111156101ff576101fe610762565b5b60405190808252806020026020018201604052801561022d5781602001602082028036833780820191505090505b50905060005b6000548110156102d1576001600082815260200190815260200160002060009054906101000a900473ffffffffffffffffffffffffffffffffffffffff1682828151811061028457610283610791565b5b602002602001019073ffffffffffffffffffffffffffffffffffffffff16908173ffffffffffffffffffffffffffffffffffffffff168152505080806102c9906107ef565b915050610233565b508091505090565b80670de0b6b3a7640000811115610325576040517f08c379a000000000000000000000000000000000000000000000000000000000815260040161031c90610894565b60405180910390fd5b3373ffffffffffffffffffffffffffffffffffffffff166108fc839081150290604051600060405180830381858888f1935050505015801561036b573d6000803e3d6000fd5b505050565b60005481565b60006001600083815260200190815260200160002060009054906101000a900473ffffffffffffffffffffffffffffffffffffffff169050919050565b60016020528060005260406000206000915054906101000a900473ffffffffffffffffffffffffffffffffffffffff1681565b6000339050600260008273ffffffffffffffffffffffffffffffffffffffff1673ffffffffffffffffffffffffffffffffffffffff16815260200190815260200160002060009054906101000a900460ff16610502576000806000815480929190610450906107ef565b9190505590506001600260008473ffffffffffffffffffffffffffffffffffffffff1673ffffffffffffffffffffffffffffffffffffffff16815260200190815260200160002060006101000a81548160ff021916908315150217905550816001600083815260200190815260200160002060006101000a81548173ffffffffffffffffffffffffffffffffffffffff021916908373ffffffffffffffffffffffffffffffffffffffff160217905550505b50565b600080fd5b600073ffffffffffffffffffffffffffffffffffffffff82169050919050565b60006105358261050a565b9050919050565b6105458161052a565b811461055057600080fd5b50565b6000813590506105628161053c565b92915050565b60006020828403121561057e5761057d610505565b5b600061058c84828501610553565b91505092915050565b60008115159050919050565b6105aa81610595565b82525050565b60006020820190506105c560008301846105a1565b92915050565b600081519050919050565b600082825260208201905092915050565b6000819050602082019050919050565b6106008161052a565b82525050565b600061061283836105f7565b60208301905092915050565b6000602082019050919050565b6000610636826105cb565b61064081856105d6565b935061064b836105e7565b8060005b8381101561067c5781516106638882610606565b975061066e8361061e565b92505060018101905061064f565b5085935050505092915050565b600060208201905081810360008301526106a3818461062b565b905092915050565b6000819050919050565b6106be816106ab565b81146106c957600080fd5b50565b6000813590506106db816106b5565b92915050565b6000602082840312156106f7576106f6610505565b5b6000610705848285016106cc565b91505092915050565b610717816106ab565b82525050565b6000602082019050610732600083018461070e565b92915050565b6107418161052a565b82525050565b600060208201905061075c6000830184610738565b92915050565b7f4e487b7100000000000000000000000000000000000000000000000000000000600052604160045260246000fd5b7f4e487b7100000000000000000000000000000000000000000000000000000000600052603260045260246000fd5b7f4e487b7100000000000000000000000000000000000000000000000000000000600052601160045260246000fd5b60006107fa826106ab565b91507fffffffffffffffffffffffffffffffffffffffffffffffffffffffffffffffff820361082c5761082b6107c0565b5b600182019050919050565b600082825260208201905092915050565b7f43616e2774207769746864726177206d6f7265207468616e2031455448210000600082015250565b600061087e601e83610837565b915061088982610848565b602082019050919050565b600060208201905081810360008301526108ad81610871565b905091905056fea26469706673582212205c5217cd576dd1763dfa319b1f781bde1bc3b58aac277aec627f0dc455b7496264736f6c63430008100033",
  "immutableReferences": {},
  "source": "// SPDX-License-Identifier: MIT\r\npragma solidity >=0.4.22 <0.9.0;\r\n\r\ncontract Faucet {\r\n    uint256 public numOfFunder;\r\n    mapping(uint256 => address) public lutFunder;\r\n    mapping(address => bool) public funders;\r\n\r\n    receive() external payable {}\r\n\r\n    function addFunds() external payable {\r\n        address funder = msg.sender;\r\n        if (!funders[funder]) {\r\n            uint256 index = numOfFunder++;\r\n            funders[funder] = true;\r\n            lutFunder[index] = funder;\r\n        }\r\n    }\r\n\r\n    function getFunderIndex(uint256 index) external view returns (address) {\r\n        return lutFunder[index];\r\n    }\r\n\r\n    function getAllFunder() external view returns (address[] memory) {\r\n        address[] memory _funders = new address[](numOfFunder);\r\n\r\n        for (uint256 i = 0; i < numOfFunder; i++) {\r\n            _funders[i] = lutFunder[i];\r\n        }\r\n        return _funders;\r\n    }\r\n\r\n    function withdraw(uint256 amount) external limitWithdraw(amount){\r\n        payable(msg.sender).transfer(amount);\r\n    }\r\n\r\n    modifier limitWithdraw(uint256 amount) {\r\n        require(amount <= 1*(10 ** 18), \"Can't withdraw more than 1ETH!\");\r\n        _;\r\n    }\r\n}\r\n",
  "sourcePath": "D:\\faucet-final\\contracts\\Faucet.sol",
  "compiler": {
    "name": "solc",
    "version": "0.8.16+commit.07a7930e.Emscripten.clang"
  },
  "schemaVersion": "3.4.9",
  "updatedAt": "2022-09-06T00:53:32.251Z",
  "networkType": "ethereum",
  "devdoc": {
    "kind": "dev",
    "methods": {},
    "version": 1
  },
  "userdoc": {
    "kind": "user",
    "methods": {},
    "version": 1
  }
}